:100000000C9417040C9438040C9438040C943804A1
:100010000C9438040C9438040C9438040C94380470
:100020000C9438040C9438040C9438040C94380460
:100030000C9438040C9438040C9438040C94380450
:100040000C9438040C9438040C9438040C94380440
:100050000C9438040C9438040C9438040C94380430
:100060000C9438040C949C070C940C080C943804E1
:100070000C9438040C9438040C9438040C94380410
:100080000C9438040C9438040C9438040C94380400
:100090000C94D4070C9463080C9438040C94380422
:1000A0000C9438040C9438040C9438040C943804E0
:1000B0000C9438040C9438040C9438040C943804D0
:1000C0000C9438040C9438040C9438040C943804C0
:1000D0000C9438040C9438040C9438040C943804B0
:1000E0000C9438044D6174654465616C65722069D7
:1000F0007320757020616E642072756E6E696E6714
:100100000D0A004572726F723A20756E6B6E6F77D2
:100110006E20737562636F6D6D616E64205B524516
:10012000414445525D0D0A004572726F723A206378
:100130006865636B73756D206572726F72205B52B8
:1001400045414445525D0D0A004572726F723A2076
:10015000636865636B73756D206572726F72205B87
:100160005245414445525D0D0A004572726F723A24
:1001700020636865636B73756D206572726F7220A2
:100180005B5245414445525D0D0A007365737369C6
:100190006F6E2D636F6D706C6574650D0A0045722E
:1001A000726F723A20696E76616C6964206368656B
:1001B000636B73756D205B56454E445D0D0A0056AA
:1001C0004641494C0D0A004572726F723A20696EC1
:1001D00076616C696420636865636B73756D205B21
:1001E00056454E445D0D0A004572726F723A2069A1
:1001F0006E76616C696420636865636B73756D20EE
:100200005B56454E445D0D0A005643414E0D0A00B3
:100210004572726F723A20696E76616C6964206310
:100220006865636B73756D205B56454E445D0D0AC2
:10023000004572726F723A20696E76616C69642053
:10024000636865636B73756D205B56454E445D0D49
:100250000A004572726F723A206E6F2041434B2044
:100260007265636569766564206F6E205B524550E8
:100270004C592043414E43454C45445D0D0A0045D1
:1002800072726F723A206E6F2041434B2072656329
:100290006569766564206F6E205B454E442053454A
:1002A0005353494F4E5D0D0A004572726F723A20EA
:1002B0006E6F2041434B20726563656976656420EB
:1002C0006F6E205B56454E442044454E595D0D0AE5
:1002D000004572726F723A206E6F2041434B20725C
:1002E00065636569766564206F6E205B56454E4494
:1002F00020415050524F56455D0D0A004572726FB5
:10030000723A206E6F2041434B20726563656976B7
:100310006564206F6E205B53455353494F4E204315
:10032000414E43454C205245515D0D0A00457272C5
:100330006F723A206E6F2041434B2072656365698E
:10034000766564206F6E205B5354415254205345B0
:100350005353494F4E5D0D0A004572726F723A2039
:100360006E6F2041434B207265636569766564203A
:100370006F6E205B4A5553542052455345545D0DD2
:100380000A004572726F723A20496E76616C696438
:1003900020636865636B73756D205B506F6C6C5D7B
:1003A0000D0A004572726F723A20756E6B6E6F7730
:1003B0006E20737562636F6D6D616E64205B534573
:1003C0005455505D0D0A004572726F723A206E6F7F
:1003D0002041434B207265636569766564206F6ECA
:1003E000205B53455455505D004572726F723A2040
:1003F000696E76616C696420636865636B73756DA3
:10040000205B53455455505D0D0A004572726F7262
:100410003A20696E76616C696420636865636B730A
:10042000756D20666F72205B52455345545D0D0A11
:10043000004572726F723A204D6174654465616C5B
:100440006572206973206E6F7420696E206120735D
:1004500075697461626C6520737461746520746F72
:100460002063616E63656C20612073657373696FCF
:100470006E0D0A004572726F723A204D61746544C8
:1004800065616C6572206973206E6F7420696E20DF
:1004900061207375697461626C6520737461746541
:1004A00020746F2064656E7920612076656E640D1E
:1004B0000A004572726F723A204D6174654465613D
:1004C0006C6572206973206E6F7420696E206120E4
:1004D0007375697461626C652073746174652074EE
:1004E0006F20617070726F766520612076656E6432
:1004F0000D0A004572726F723A204D617465446551
:10050000616C6572206E6F7420726561647920661B
:100510006F7220612073657373696F6E0D0A0045F9
:1005200072726F723A2053657373696F6E206973CC
:1005300020616C72656164792072756E6E696E6798
:100540000D0A004E4547415449564556454E440D07
:100550000A00524556414C55450D0A0056454E4439
:100560000D0A0053455353494F4E49444C450D0A1B
:1005700000454E41424C45440D0A00444953414216
:100580004C45440D0A00494E4143544956450D0A15
:10059000004572726F723A205365747570206E6FE9
:1005A000742079657420636F6D706C657465642167
:1005B0000D0A002D2D2D2D2D2D2D2D2D2D2D2D2DDB
:1005C0002D2D2D2D2D2D2D2D2D2D2D2D2D2D2D2D5B
:1005D0002D2D2D2D2D2D2D2D2D2D2D2D2D2D2D2D4B
:1005E0002D2D0D0A00232320202020564D4320705E
:1005F000726963652072616E676520202020202368
:10060000230D0A00232320564D4320636F6E666935
:100610006775726174696F6E206461746120232351
:100620000D0A002D2D2D2D2D2D2D2D2D2D2D2D2D6A
:100630002D2D2D2D2D2D2D2D2D2D2D2D2D2D2D2DEA
:100640002D2D2D2D2D2D2D2D2D2D2D2D2D2D2D2DDA
:100650002D2D0D0A002D2D2D2D2D2D2D2D2D2D2D3A
:100660002D2D2D2D2D2D2D2D2D2D2D2D2D2D2D2DBA
:100670002D2D2D2D2D2D2D2D2D2D2D2D2D2D2D2DAA
:100680002D2D2D2D0D0A0064656E792D76656E6415
:100690003A0D0A20202064656E696573206120761A
:1006A000656E6420726571756573742E0D0A006144
:1006B0007070726F76652D76656E64203C76656E1F
:1006C000642D616D6F756E743E3A0D0A20202061B5
:1006D0007070726F76657320612076656E6420722B
:1006E0006571756573742077697468203C76656EF2
:1006F000642D616D6F756E743E204575726F204379
:10070000656E74732E0D0A0073746172742D7365B7
:100710007373696F6E203C66756E64733E3A0D0AA2
:100720002020207374617274732061207365737369
:10073000696F6E2077697468203C66756E64733EDD
:10074000204575726F2043656E74732E0D0A006D1F
:1007500064622D73746174653A0D0A202020646907
:1007600073706C617973207468652063757272654B
:100770006E74204D44422073746174652E0D0A001E
:10078000696E666F3A0D0A20202073686F777320B8
:1007900074686520564D4320696E666F73207472CD
:1007A000616E73666572656420647572696E672038
:1007B0007468652073657475702070726F636573FB
:1007C000730D0A0072657365743A0D0A2020207259
:1007D00065736574207468652041726475696E6F15
:1007E0000D0A002D2D2D2D2D2D2D2D2D2D2D2D2DA9
:1007F0002D2D2D2D2D2D2D2D2D2D2D2D2D2D2D2D29
:100800002D2D2D2D2D2D2D2D2D2D2D2D2D2D2D2D18
:100810002D2D0D0A004572726F723A20556E6B6E67
:100820006F776E20636F6D6D616E640D0A00112429
:100830001FBECFEFD1E2DEBFCDBF00E00CBF15E0A1
:10084000A0E0B2E0E4E3F7E200E00BBF02C00790F3
:100850000D92A236B107D9F715E0A2E6B5E001C0C6
:100860001D92A73AB107E1F70E943A040C9498133D
:100870000C940000EF920F9380E040E056E960E0B6
:1008800070E028E00EE4EE24E3940E945A0481E034
:1008900040E855E260E070E029E00E945A04789454
:1008A00080E064EE70E00E9428070E94BC0D0E9468
:1008B0000510FBCFAF92BF92CF92DF92EF92FF92E3
:1008C0000F931F93CF93DF93F82E5A016B01122FD2
:1008D00060E874E88EE190E0A60195010E944E1058
:1008E00021503040404050405695479537952795C8
:1008F0004F2D50E08CE091E0489FD001499FB00D12
:10090000589FB00D1124A050BE4FAC5FBE4FED916B
:10091000FD913083ED91FC911197A650B140208359
:10092000ED01C85FDE4FE881F981808188608083B6
:10093000E881F981808180618083E881F98180810B
:1009400080688083173021F1183030F4153051F071
:10095000163009F04BC00EC0183011F1193009F0F3
:1009600045C031C0FD01E65FFE4FA081B1818C9191
:100970008D7F07C0FD01E65FFE4FA081B1818C91A4
:1009800082608C930190F081E02D80818B7F15C077
:10099000FD01E65FFE4FA081B1818C918D7F07C084
:1009A000FD01E65FFE4FA081B1818C9182608C9346
:1009B0000190F081E02D808184608083E881F9815D
:1009C00080818B7F12C0FD01E65FFE4FA081B18167
:1009D0008C9182608C930190F081E02D8081846005
:1009E0008083E881F9818081846080830E3429F0DE
:1009F0000F3449F10534E9F516C08CE091E0489FC9
:100A0000F001499FF00D589FF00D1124E65FFC4F57
:100A1000A081B1818C918F7E8C930190F081E02D2B
:100A200080818F7D25C08CE091E0489FF001499F37
:100A3000F00D589FF00D1124E65FFC4FA081B181AD
:100A40008C918F7E0FC08CE091E0489FF001499F10
:100A5000F00D589FF00D1124E65FFC4FA081B1818D
:100A60008C9180618C930190F081E02D8081806277
:100A7000808381E08E1588F48CE091E0489FF0013E
:100A8000499FF00D589FF00D1124E65FFC4F019037
:100A9000F081E02D8081886010C08CE091E0489F5B
:100AA000F001499FF00D589FF00D1124E65FFC4FB7
:100AB0000190F081E02D8081877F8083DF91CF914D
:100AC0001F910F91FF90EF90DF90CF90BF90AF906C
:100AD000089590E0262F30E0F901F695FE2FEE27DD
:100AE000F795E795220F331FE20FF31F2CE031E05B
:100AF000829FA001839F500D929F500D1124E40FFF
:100B0000F51FEF57FD4F8081262F30E0F901F69554
:100B1000FE2FEE27F795E795220F331FE20FF31F05
:100B2000E40FF51FE058FD4F9081891B0895DA010D
:100B300090E0262F30E0F901F695FE2FEE27F7958D
:100B4000E795220F331FE20FF31F2CE031E0829F65
:100B5000A001839F500D929F500D1124E40FF51FAB
:100B6000E058FD4F2081862F90E0FC01F695FE2F86
:100B7000EE27F795E795880F991FE80FF91FE40F07
:100B8000F51FEF57FD4F8081281711F481E008957C
:100B9000862F90E0FC01F695FE2FEE27F795E7955E
:100BA000880F991FE80FF91FE40FF51FE058FD4F5C
:100BB0002081862F90E0FC01F695FE2FEE27F79519
:100BC000E795880F991FE80FF91FE40FF51FE05014
:100BD000FE4FE20FF11D80818C93862F90E0FC0187
:100BE000F695FE2FEE27F795E795880F991FE80FEA
:100BF000F91FE40FF51FE058FD4F20812F5F2F777D
:100C0000862F90E0FC01F695FE2FEE27F795E795ED
:100C1000880F991FE80FF91FE40FF51FE058FD4FEB
:100C2000208380E00895742F90E0262F30E0F901B2
:100C3000F695FE2FEE27F795E795220F331FE20F6B
:100C4000F31F2CE031E0AC01429FC001439F900DA7
:100C5000529F900D1124E80FF91FEF57FD4F30817F
:100C60003F5F3F77AC01862F90E0FC01F695FE2FA9
:100C7000EE27F795E795880F991FE80FF91FE40F06
:100C8000F51FE058FD4F8081831769F3862F90E0B0
:100C9000FC01F695FE2FEE27F795E795880F991F33
:100CA000E80FF91FE40FF51FEF57FD4F2081862F46
:100CB00090E0FC01F695FE2FEE27F795E795880F5B
:100CC000991FE80FF91FE40FF51FE050FE4FE20FE8
:100CD000F11D7083862F90E0FC01F695FE2FEE2724
:100CE000F795E795880F991FE80FF91FE40FF51F97
:100CF000EF57FD4F3083613091F5FA01E85FFC4F0B
:100D0000A081B1818C9182FF27C081E090E0FC013D
:100D1000F695FE2FEE27F795E795880F991FE80FB8
:100D2000F91FE40FF51FEF57FD4F208181E090E0A0
:100D3000FC01F695FE2FEE27F795E795880F991F92
:100D4000E80FF91FE40FF51FE058FD4F808130E0F8
:100D5000281B310920FD03C08C9180628C9380E0B8
:100D60000895462F61E00E9413060895CF93DF9304
:100D7000EB0190E02CE031E0829FA001839F500DB9
:100D8000929F500D1124FA01E050FE4FDF01A05850
:100D9000BF4F9C91EF57FF4F8081981711F481E06E
:100DA0000DC08C91FA01E80FF11DE050FE4F8081DB
:100DB00088838C918F5F8F778C9380E0DF91CF91C8
:100DC00008951F93CF93DF93182FEB0108C0812F55
:100DD0000E94B106882311F081E005C02196688148
:100DE0006623A9F780E0DF91CF911F910895CF93FB
:100DF000DF93EB0190E02CE031E0829FA001839F24
:100E0000500D929F500D1124CA0180509E4FDC015D
:100E1000A058BF4F9C012F573F4F9C91F9018081F3
:100E2000981791F08C91FA01E80FF11DE050FE4FF8
:100E300090818C918F5F8F778C939883992311F495
:100E400080E003C02196E9CF81E0DF91CF91089542
:100E50001F93CF93DF93182FEB0108C0812F0E94BF
:100E6000B106882311F081E006C02196FE0164914D
:100E70006623A1F780E0DF91CF911F910895FF9243
:100E80000F931F93082FF62E472F61E00E94130641
:100E9000182F802F61E04F2D0E941306812B1F9188
:100EA0000F91FF900895482F50E08CE091E0489F0B
:100EB0009001499F300D589F300D1124F901E050E9
:100EC000FE4FDF01A058BF4F9C91EF57FF4F80812D
:100ED000981759F08C91F901E80FF11DE050FE4F81
:100EE00060818C918F5F8F778C938CE091E0489F2D
:100EF0009001499F300D589F300D1124F901E050A9
:100F0000FE4FDF01A058BF4F9C91EF57FF4F8081EC
:100F1000981759F08C91F901E80FF11DE050FE4F40
:100F200020818C918F5F8F778C9330E0962F80E0BB
:100F3000282B392BC90108951F920F920FB60F92DB
:100F40000BB60F9211242F933F934F935F936F93A0
:100F50007F938F939F93AF93BF93EF93FF93809172
:100F6000C10082FF08C04091C1004695417080E0F9
:100F700060E00E9413064091C60080E060E00E949D
:100F80001306FF91EF91BF91AF919F918F917F9148
:100F90006F915F914F913F912F910F900BBE0F90EA
:100FA0000FBE0F901F9018951F920F920FB60F92C1
:100FB0000BB60F9211242F933F934F935F936F9330
:100FC0007F938F939F93AF93BF93EF93FF93809102
:100FD000C90082FF08C04091C9004695417081E078
:100FE00060E00E9413064091CE0081E060E00E9424
:100FF0001306FF91EF91BF91AF919F918F917F91D8
:101000006F915F914F913F912F910F900BBE0F9079
:101010000FBE0F901F9018951F920F920FB60F9250
:101020000BB60F9211248F939F93EF93FF939091A0
:101030000303809102039817B1F18091C10082FFF0
:101040001DC09091020380910303981761F0E09115
:101050000203F0E0EE57FD4FE081809102038F5FC5
:101060008F7780930203E0FF04C08091C10081600C
:1010700003C08091C1008E7F8093C10090910203D4
:1010800080910303981761F0E0910203F0E0EE57BE
:10109000FD4FE081809102038F5F8F778093020381
:1010A000E093C60005C08091C1008F7D8093C10090
:1010B000FF91EF919F918F910F900BBE0F900FBEFC
:1010C0000F901F9018951F920F920FB60F920BB6AC
:1010D0000F9211248F939F93EF93FF9390910F049E
:1010E00080910E049817B1F18091C90082FF1DC054
:1010F00090910E0480910F04981761F0E0910E0416
:10110000F0E0E257FC4FE08180910E048F5F8F7713
:1011100080930E04E0FF04C08091C900816003C089
:101120008091C9008E7F8093C90090910E048091B8
:101130000F04981761F0E0910E04F0E0E257FC4FC5
:10114000E08180910E048F5F8F7780930E04E0938F
:10115000CE0005C08091C9008F7D8093C900FF91AA
:10116000EF919F918F910F900BBE0F900FBE0F903C
:101170001F9018951F9381E060E00E9469058430FC
:1011800008F44EC081E00E945307182F81E00E94AE
:1011900053071130B1F0113018F01230C1F524C0EE
:1011A000843121F080E06AE671E034C081E060E0E3
:1011B00071E00E943F07109264051092630581E080
:1011C00010C0853121F080E069E471E023C081E046
:1011D00060E071E00E943F07109264051092630581
:1011E00082E0809362051CC0863121F080E068E2D5
:1011F00071E010C081E060E071E00E943F07109252
:10120000640589E0809363051093620509C080E05E
:1012100063E071E00E942807109264051092630554
:101220001F9108950F931F9380917C058823C9F423
:1012300081E060E00E946905823008F4B8C181E075
:101240000E945307429751F0109264051092630573
:1012500010927C0580E062E873E04AC081E08093F0
:101260007C0580916305853009F493C0863040F495
:101270008130C9F0813088F0843009F098C13BC0DA
:10128000873009F407C1873008F4B5C0883009F405
:101290003CC1893009F08BC15CC181E060E071E044
:1012A0000E943F077EC180917C05813041F460E05F
:1012B00070E00E943F0781E060E071E055C182303C
:1012C00009F075C181E060E00E946905823008F490
:1012D0006EC181E00E945307892B09F462C110920C
:1012E00064051092630510927C0580E069E573E067
:1012F0000E9428075CC180916E05882309F457C1BC
:1013000080917C058130E1F463E070E00E943F074A
:101310006091700581E070E00E943F0760916F0569
:1013200070917005707081E00E943F0780916F0599
:101330000091700510E0080F111D0D5F1F4F7FC059
:10134000823009F034C181E060E00E94690582309A
:1013500008F42DC181E00E945307892B81F010927F
:1013600064051092630510926E051092700510923C
:101370006F0510927C0580E06DE273E0B9CF1092AA
:101380006E051092700510926F0583E080936205E0
:1013900008C180917C05813041F464E070E00E94D6
:1013A0003F0781E064E071E0DFC0823009F0FFC0F8
:1013B00081E060E00E946905823008F4F8C081E0B5
:1013C0000E945307892B81F01092640510926305E7
:1013D00010926E051092700510926F0510927C05A8
:1013E00080E06CEF72E084CF10926E051092700571
:1013F00010926F05D6C080917105882309F4D7C07B
:1014000080917C05813001F565E070E00E943F0726
:101410006091740581E070E00E943F076091730560
:1014200070917405707081E00E943F078091730590
:101430000091740510E0080F111D0B5F1F4F107015
:10144000116081E0B80190C0823009F0B0C081E045
:1014500060E00E946905823008F4A9C081E00E9422
:101460005307892B81F01092640510926305109246
:101470007105109274051092730510927C0580E03E
:1014800061ED72E035CF10927105109274051092E3
:10149000730587C080917205882309F488C0809104
:1014A0007C05813041F466E070E00E943F0781E0F6
:1014B00066E071E059C0823009F079C081E060E0F7
:1014C0000E946905823008F472C081E00E945307CF
:1014D000892B91F0109264051092630510926E05AD
:1014E0001092700510926F051092720510927C0593
:1014F00080E069EA72E0FCCE10926E0510927005F1
:1015000010926F05109272054CC080917C0581305D
:1015100041F467E070E00E943F0781E067E071E01E
:1015200023C0823009F043C081E060E00E94690579
:101530008230E8F181E00E945307892B91F11092EB
:1015400064051092630510927C0580E06FE772E0FD
:10155000CFCE80917C05813069F468E070E00E9414
:101560003F0781E068E071E00E943F0782E08093DE
:101570007C051DC08230D9F481E060E00E946905DD
:101580008230A8F081E00E945307892B51F010921D
:1015900064051092630510927C0580E062E572E0BC
:1015A000A7CE109264051092630510927C051F91DE
:1015B0000F910895EF92FF920F931F93DF93CF93B4
:1015C00000D000D0CDB7DEB78E010F5F1F4F86E091
:1015D000F80111928A95E9F780917D05823008F033
:1015E00046C081E060E00E9469058C3008F404C1C7
:1015F00087E0E82EF12CEC0EFD1E81E00E945307DF
:10160000F80181938F01EE15FF05B9F749818A81B1
:10161000242F30E0280F311D8B81280F311D8C8144
:10162000280F311D8D81280F311D80913804909134
:101630003904280F391F307030933904209338044F
:101640008E8190E02817390781F010927D05109265
:1016500064051092630581E190E0909339048093D2
:10166000380480E069EE73E0B9C040937D051091C5
:101670007D05113009F47AC0113020F0123009F0E4
:10168000B0C098C08A81809366058B81809367057E
:101690008C81809368058D81809369056091300409
:1016A000209132048091330490E0820F911D2091AB
:1016B0003404820F911D20913504820F911D2091D9
:1016C0003604820F911D20913704820F911D4091A5
:1016D0003104262F30E0240F311D820F931F9070AC
:1016E0009160909339048093380481E070E00E9407
:1016F0003F076091310481E070E00E943F076091F4
:10170000330481E070E00E943F07609132047091E1
:101710003304707081E00E943F076091340481E0DF
:1017200070E00E943F076091350481E070E00E9404
:101730003F076091360481E070E00E943F076091AE
:10174000370481E070E00E943F0760913804709197
:10175000390481E00E943F0782E080937D0581E1AA
:1017600090E0909339048093380446C09A8180E0D9
:101770002B8130E0822B932B90936B0580936A052D
:101780009C8180E02D8130E0822B932B90936D051E
:1017900080936C0581E060E071E00E943F07109348
:1017A000620510927D0581E190E090933904809369
:1017B00038041EC081E060E00E9469058230E0F0DC
:1017C00081E00E945307823088F010927D051092CC
:1017D00064051092630580E067EC73E00E942807BF
:1017E0000BC080E063EA73E00E94280710927D0539
:1017F000109264051092630526960FB6F894DEBF2A
:101800000FBECDBFCF91DF911F910F91FF90EF9051
:10181000089581E060E00E946905823068F181E00E
:101820000E945307409751F010926405109263058F
:1018300080E06BE074E00E9428070895109266052E
:1018400010926705109268051092690510926B0559
:1018500010926A0510926D0510926C0581E060E0AF
:1018600071E00E943F0781E0809365051092620558
:10187000109264058093630508950F931F93DF937F
:10188000CF93CDB7DEB7A8970FB6F894DEBF0FBEE3
:10189000CDBF80917505882379F481E060E00E94D6
:1018A0006905823008F45DC181E00E94530780938E
:1018B000760581E08093750580917605823009F484
:1018C000A8C0833030F4882359F0813009F049C131
:1018D00070C0833009F4F7C0843009F042C112C1EE
:1018E00081E060E00E9469058A3008F43AC107E7A8
:1018F00015E081E00E945307D8018D938D01B5E07A
:101900000C371B07B1F7209177053091780550917E
:10191000790540917A0580917605820F8D5E830F5F
:10192000850F840F90917B05891751F010927505F2
:10193000109264051092630580E061E372E0FBC0E1
:10194000EDB7FEB738970FB6F894FEBF0FBEEDBFE8
:1019500031968E010F5F1F4FADB7BEB712961C9325
:101960000E93119788E194E093838283922F80E015
:10197000830F911D95838483852F90E0840F911DA3
:10198000978386830E94C110EDB7FEB738960FB6D5
:10199000F894FEBF0FBEEDBF80E0B8010E94E106E3
:1019A00081E060E071E00E943F071092750584E0DD
:1019B000D2C081E060E00E946905823008F4D1C0A5
:1019C00081E00E94530780937705909176059D5E94
:1019D000981751F0109275051092640510926305E6
:1019E00080E060E172E0A7C080E069E072E00E9400
:1019F000280781E060E071E00E943F0710927505C2
:101A000083E0809362051092640587E0809363050C
:101A1000A8C081E060E00E946905863008F4A1C09A
:101A200081E00E9453078093770581E00E9453076D
:101A30008093780581E00E94530780937905309167
:101A400077052091780590917605930F9D5E920F12
:101A5000981751F010927505109264051092630565
:101A600080E068EE71E067C000D000D0EDB7FEB74F
:101A700031968E010F5F1F4FADB7BEB712961C9304
:101A80000E93119785E294E093838283832F90E0F5
:101A9000820F911D958384830E94C110EDB7FEB71C
:101AA00036960FB6F894FEBF0FBEEDBF80E0B801CA
:101AB0000E94E10681E060E071E00E943F07109221
:101AC000750583E048C081E060E00E9469058230CE
:101AD00008F447C081E00E945307809377059091F6
:101AE00076059D5E981751F0109275051092640569
:101AF0001092630580E067EC71E01DC080E06FEB41
:101B000071E01FC081E060E00E946905823048F109
:101B100081E00E94530780937705909176059D5E42
:101B2000981761F010927505109264051092630584
:101B300080E06EE971E00E94280713C080E06BE846
:101B400071E00E94280781E060E071E00E943F0799
:101B50001092750582E080936205109264051092E0
:101B60006305A8960FB6F894DEBF0FBECDBFCF9128
:101B7000DF911F910F91089580916405813191F15A
:101B8000823128F4882351F08031B9F528C083319F
:101B900079F1833150F1843181F52DC081E060E02D
:101BA0000E946905823048F181E00E94530790FF4E
:101BB00024C020E031E02827392720313105E8F022
:101BC00025313105D0F4282F809364058091650577
:101BD000882399F4203189F01092640508950E94B9
:101BE000090C08950E94DA0A08950E9412090895C6
:101BF0000E943D0C08950E94BA080895E0E0F0E0CC
:101C00000994089580916205833021F485E08093E2
:101C10006305089580E061E374E00E942807089559
:101C200080916205843039F481E08093720587E009
:101C300080936305089580E064E774E00E942807BC
:101C40000895809162058330D1F0843028F481308A
:101C500071F0823080F407C08530C9F0853098F08B
:101C6000863001F51AC080E066E875E013C080E0B8
:101C70006BE775E00FC080E061E775E00BC080E0C6
:101C800063E675E007C080E06CE575E003C080E0C6
:101C900062E575E00E942807089580E063E475E03E
:101CA0000E942807089580E063EE77E00E942807ED
:101CB00080E064EC77E00E94280780E060E877E04D
:101CC0000E94280780E06FE477E00E94280780E008
:101CD00068E077E00E94280780E06FEA76E00E94E3
:101CE000280780E067E876E00E94280780E065E545
:101CF00076E00E94280708959C0180916205843057
:101D000071F481E080937105C9010E947010909375
:101D100074058093730586E080936305089580E0E1
:101D200062EB74E00E94280708959C01809162058F
:101D30008230B1F480916E05882371F481E0809344
:101D40006E05C9010E9470109093700580936F0515
:101D500084E080936305089580E06FE175E003C03F
:101D600080E063EF74E00E94280708950F931F93AB
:101D7000DF93CF93CDB7DEB7A8970FB6F894DEBF49
:101D80000FBECDBF80916205823008F4E0C080E0D4
:101D900063E276E00E94280780E064E076E00E943B
:101DA000280700D000D0EDB7FEB731968E010F5F47
:101DB0001F4FADB7BEB712961C930E9311978AE3CF
:101DC00094E09383828380916605848315820E94C8
:101DD000C1108DB79EB706960FB6F8949EBF0FBE82
:101DE0008DBF80E0B8010E94E10600D000D0EDB7C1
:101DF000FEB73196ADB7BEB712961C930E931197EE
:101E000088E594E0938382838091670584831582BB
:101E10000E94C1108DB79EB706960FB6F8949EBF6C
:101E20000FBE8DBF80E0B8010E94E10600D000D057
:101E3000EDB7FEB73196ADB7BEB712961C930E93B1
:101E4000119786E794E09383828380916805848369
:101E500015820E94C1108DB79EB706960FB6F894F2
:101E60009EBF0FBE8DBF80E0B8010E94E10600D08A
:101E700000D0EDB7FEB73196ADB7BEB712961C9342
:101E80000E93119784E994E093838283809169058E
:101E9000848315820E94C1108DB79EB706960FB637
:101EA000F8949EBF0FBE8DBF80E0B8010E94E1068E
:101EB00080E065EE75E00E94280700D000D0EDB705
:101EC000FEB73196ADB7BEB712961C930E9311971D
:101ED00082EB94E09383828380916A0590916B05F5
:101EE000958384830E94C1108DB79EB706960FB666
:101EF000F8949EBF0FBE8DBF80E0B8010E94E1063E
:101F000000D000D0EDB7FEB73196ADB7BEB7129690
:101F10001C930E93119780ED94E0938382838091BC
:101F20006C0590916D05958384830E94C1108DB7D7
:101F30009EB706960FB6F8949EBF0FBE8DBF80E089
:101F4000B8010E94E10680E063EB75E003C080E029
:101F500061E975E00E942807A8960FB6F894DEBFE5
:101F60000FBECDBFCF91DF911F910F910895CF92FA
:101F7000DF92FF920F931F93DF93CF930F920F92F5
:101F8000CDB7DEB79A838983CE0101966EEE74E0F9
:101F90000E94A1106C01FF2412C0000F111F000F3E
:101FA000111F0E5B1A4FD8018D919C91892B31F432
:101FB00080E065E178E00E9428071DC0F3940F2DB2
:101FC00010E0F801EE0FFF1FEE0FFF1FE25CFA4F6B
:101FD00080819181B6010E948E10892BF1F6000F4D
:101FE000111F000F111F005C1A4FD801ED91FC91D9
:101FF00089819A8119950F900F90CF91DF911F9150
:102000000F91FF90DF90CF90089580E060E00E94F4
:102010006905882309F441C080917E05843111F45B
:1020200010927E0560917E0570E061587A4F80E0E5
:102030000E94B60690917E05E92FF0E0DF01A158DD
:10204000BA4F8C918D3061F08E3028F4883081F059
:102050008A3091F408958B3169F08B3569F40AC0A8
:102060001C928FE795E00E94B70F10927E050895AD
:1020700091500DC09F5F0BC0E158FA4F829131968D
:102080008B3541F4329780818B3121F492509093BB
:102090007E0508959F5F90937E050895A1E21A2E14
:1020A000AA1BBB1BFD010DC0AA1FBB1FEE1FFF1FFC
:1020B000A217B307E407F50720F0A21BB30BE40B4C
:1020C000F50B661F771F881F991F1A9469F7609593
:1020D0007095809590959B01AC01BD01CF0108954D
:1020E000FC0188279927E89421912032E9F32930CF
:1020F00010F02E30C8F32B3241F02D3239F46894B1
:1021000004C00E94B910820F911D219120532A30E2
:10211000C0F31EF4909581959F4F0895FB01DC015B
:102120008D9181341CF08B350CF4805E61916134AB
:102130001CF06B350CF4605E861B611189F3990B02
:102140000895FC01A081B181AD01109681F03D910F
:10215000FB01019003160110E1F7C9F7002011F40B
:10216000D00102C01E921196FC01A083B183CA0166
:1021700008957AE0979F902D879F802D910D1124CF
:1021800008950F931F93DF93CF93CDB7DEB72E97AC
:102190000FB6F894DEBF0FBECDBF0E891F8986E053
:1021A0008C831A8309838FEF9FE79E838D839E0123
:1021B000265E3F4FCE010196688D798DA9010E9460
:1021C000F2102F813885020F131FF80110822E960E
:1021D0000FB6F894DEBF0FBECDBFCF91DF911F9138
:1021E0000F9108952F923F924F925F926F927F923C
:1021F0008F929F92AF92BF92CF92DF92EF92FF9217
:102200000F931F93DF93CF93CDB7DEB72B970FB606
:10221000F894DEBF0FBECDBF3C012B015A01FC017B
:1022200017821682838181FD03C06FEF7FEFC6C1E5
:102230009AE0892E1E010894211C311CF301238190
:10224000F20123FD859123FF81912F01882309F459
:10225000B2C1853239F423FD859123FF81912F018D
:10226000853229F490E0B3010E940E13E7CF982F36
:10227000FF24EE249924FFE1FF15D0F09B3269F092
:102280009C3228F4903259F0933291F40EC09D3272
:1022900049F0903369F441E024C052E0F52A84E02B
:1022A000F82A28C098E0F92A25C0E0E1FE2A22C0D9
:1022B000F7FC29C0892F80538A3070F4F6FE05C0E0
:1022C000989C902C1124980E15C0E89CE02C1124A9
:1022D000E80EF0E2FF2A0EC09E3229F4F6FC6BC134
:1022E00040E4F42A07C09C3619F450E8F52A02C0ED
:1022F000983649F4F20123FD959123FF91912F0126
:10230000992309F0B8CF892F8554833018F0805273
:10231000833038F444E050E0A40EB51E5FE35983E7
:102320000FC0933631F0933779F0933509F056C0EA
:1023300020C0F5018081898342E050E0A40EB51EE3
:10234000610101E010E012C0F501C080D180F6FC0F
:1023500003C06FEF7FEF02C0692D70E042E050E0F4
:10236000A40EB51EC6010E9403138C015FE7F5227F
:1023700014C0F501C080D180F6FC03C06FEF7FEF81
:1023800002C0692D70E042E050E0A40EB51EC60107
:102390000E94F8128C0150E8F52AF3FE07C01AC01B
:1023A00080E290E0B3010E940E13EA948E2D90E03B
:1023B00008171907A8F30EC0F601F7FC8591F7FE80
:1023C00081916F0190E0B3010E940E13E110EA9435
:1023D000015010400115110579F7EAC0943611F04B
:1023E000993669F5F7FE08C0F501208131814281F7
:1023F000538184E090E00AC0F501808191819C01C5
:10240000442737FD4095542F82E090E0A80EB91E76
:102410009FE6F92257FF09C05095409530952195C8
:102420003F4F4F4F5F4FE0E8FE2ACA01B901A101BB
:102430002AE030E00E943A13D82ED21840C09537D7
:1024400029F41F2D1F7E2AE030E01DC01F2D197FAB
:102450009F3661F0903720F4983509F0ACC00FC07A
:10246000903739F0983709F0A6C004C028E030E072
:102470000AC0106114FD146020E130E004C014FDB6
:10248000166020E132E017FF08C0F501608171811C
:102490008281938144E050E008C0F5018081918100
:1024A000BC0180E090E042E050E0A40EB51EA10126
:1024B0000E943A13D82ED2188FE7F82EF122F6FE9A
:1024C0000BC05EEFF522D91438F4F4FE07C0F2FC1D
:1024D00005C08FEEF82202C01D2D01C0192DF4FE9B
:1024E0000DC0FE01ED0DF11D8081803319F499EED0
:1024F000F92208C01F5FF2FE05C003C08F2D867849
:1025000009F01F5F0F2DF3FC14C0F0FE0FC01E1565
:1025100010F09D2C0BC09D2C9E0C911A1E2D06C0F8
:1025200080E290E0B3010E940E131F5F1E15C0F3FE
:1025300004C01E1510F4E11A01C0EE2404FF0FC000
:1025400080E390E0B3010E940E1302FF1DC001FD65
:1025500003C088E790E00EC088E590E00BC0802FB4
:10256000867891F001FF02C08BE201C080E2F7FCA7
:102570008DE290E0B3010E940E1306C080E390E06C
:10258000B3010E940E139A94D914C0F3DA94F101A6
:10259000ED0DF11D808190E0B3010E940E13DD204E
:1025A000A9F706C080E290E0B3010E940E13EA94FE
:1025B000EE20C1F743CEF30166817781CB012B96E4
:1025C0000FB6F894DEBF0FBECDBFCF91DF911F9144
:1025D0000F91FF90EF90DF90CF90BF90AF909F90C2
:1025E0008F907F906F905F904F903F902F900895C5
:1025F000FC010590615070400110D8F780959095CE
:102600008E0F9F1F0895FC016150704001900110D2
:10261000D8F7809590958E0F9F1F08950F931F9365
:10262000CF93DF938C01EB018B8181FF1BC082FF75
:102630000DC02E813F818C819D812817390764F45C
:10264000E881F9810193F983E88306C0E885F9857B
:10265000802F1995892B31F48E819F8101969F835C
:102660008E8302C00FEF1FEFC801DF91CF911F9142
:102670000F910895FA01AA27283051F1203181F1F4
:10268000E8946F936E7F6E5F7F4F8F4F9F4FAF4F7A
:10269000B1E03ED0B4E03CD0670F781F891F9A1F8D
:1026A000A11D680F791F8A1F911DA11D6A0F711D41
:1026B000811D911DA11D20D009F468943F912AE04D
:1026C000269F11243019305D3193DEF6CF01089535
:1026D000462F4770405D4193B3E00FD0C9F7F6CF66
:1026E000462F4F70405D4A3318F0495D31FD40522E
:1026F000419302D0A9F7EACFB4E0A69597958795C4
:1027000077956795BA95C9F70097610571050895A2
:102710009B01AC010A2E069457954795379527954E
:10272000BA95C9F7620F731F841F951FA01D0895E6
:04273000F894FFCF4B
:102734000000000000000000000000000000000095
:102744000000000000000000000000000000000085
:102754000000000000000000000000000000000075
:102764000000000000000000000000000000000065
:102774000000000000000000000000000000000055
:102784000000000000000000000000000000000045
:102794000000000000000000000000000000000035
:1027A4000000000000000000000000000000000025
:1027B4000000000000000000000000000000000015
:1027C4000000000000000000000000000000000005
:1027D40000000000000000000000000000000000F5
:1027E40000000000000000000000000000000000E5
:1027F40000000000000000000000000000000000D5
:1028040000000000000000000000000000000000C4
:1028140000000000000000000000000000000000B4
:1028240000000000000000000000000000000000A4
:1028340000000000C500C400C100C2000000000088
:102844000000000000000000000000000000000084
:102854000000000000000000000000000000000074
:102864000000000000000000000000000000000064
:102874000000000000000000000000000000000054
:102884000000000000000000000000000000000044
:102894000000000000000000000000000000000034
:1028A4000000000000000000000000000000000024
:1028B4000000000000000000000000000000000014
:1028C4000000000000000000000000000000000004
:1028D40000000000000000000000000000000000F4
:1028E40000000000000000000000000000000000E4
:1028F40000000000000000000000000000000000D4
:1029040000000000000000000000000000000000C3
:1029140000000000000000000000000000000000B3
:1029240000000000000000000000000000000000A3
:102934000000000000000000000000000000000093
:10294400CD00CC00C900CA00565245512025642050
:1029540025640D0A0056535543432025640D0A008F
:1029640001017819010205001100564D43206665E6
:102974006174757265206C6576656C3A2020202040
:1029840020202025640D0A00564D4320646973708D
:102994006C617920636F6C756D6E733A2020202012
:1029A4002025640D0A00564D4320646973706C61E0
:1029B4007920726F77733A20202020202020202550
:1029C400640D0A00564D4320646973706C6179206C
:1029D400696E666F3A202020202020202025640D77
:1029E4000A004D6178696D756D2070726963653A8E
:1029F400202020202020202020202025640D0A00D3
:102A04004D696E696D756D2070726963653A202039
:102A140020202020202020202025640D0A002000D2
:102A240072657365740068656C7000696E666F002A
:102A34006D64622D73746174650073746172742DB6
:102A440073657373696F6E00617070726F76652D54
:102A540076656E640064656E792D76656E640063D8
:102A6400616E63656C2D73657373696F6E00F0043A
:102A7400FE0DF604530EFB04B60E0005210E0A05E6
:102A8400950E18057C0E2505100E2F05020E00006C
:022A9400000040
:00000001FF
